:040000000C94390023
:1400540020202020CEA2D1A9B5E7D7D30020205761766553C2
:09006800686172652E6E6574007A
:14007200CFE5D4E0CDBFDEBFC051D0400AEA08830024EDE751
:14008600F0E010E0E338F10711F00192FBCF0083E4E5F0E019
:14009A00A0E6B0E010E0E137F10721F0C89531960D92F9CFA0
:1400AE000E94C003FFCF0E94D4030E9488042897CC88AA2483
:1400C20041E050E060E070E0FE01408351836283738346C0D2
:1400D600FE012080318042805380FE0160887188828893882C
:1400EA005A924A923A922A92830194010E94D903FE01048395
:1400FE001583268337834AE050E060E070E0FE0124803580B1
:14011200468057807A936A935A934A93810192010E94DB03D3
:140126008DE790E0EA2DFF27E80FF91F0083FE0120803180C2
:14013A00428053804AE050E060E070E05A924A923A922A92E2
:14014E008A019B010E944A04FE010083118322833383A394DE
:14016200AC1408F4B7CF28960E9480042496089584EA86BF59
:1401760026B627FEFDCF81B1887F883011F0002701C001E0ED
:14018A00089584EA86BF26B627FEFDCF81B1887F803111F059
:14019E00002701C001E0089503B984E886BF26B627FEFDCFAD
:1401B20081B1887F883111F0002701C001E008950E948E04AC
:1401C600A80140FF0BC0042F1127012F112707FD1095E6DF31
:1401DA00002311F4002707C0042FE0DF002311F4002701C0F9
:1401EE0001E00E949104089503B984E886BF26B627FEFDCF0E
:1402020081B1887F803411F0002701C001E008950E948E0460
:14021600402F40FF0BC0042F1127012F112707FD1095BEDF42
:14022A00002311F4002707C0042FB8DF002311F4002701C0D0
:14023E0001E00E949104089503B984E886BF26B627FEFDCFBD
:1402520081B1887F883211F0002701C001E0089584E886BF8D
:1402660026B627FEFDCF81B1887F883511F0002704C023B002
:14027A00F801208201E0089584EC86BF26B627FEFDCF81B1A3
:14028E00887F803511F0002704C023B0F801208201E00895C8
:1402A2000E948C04422FB80163DF002311F4002715C08B01FA
:1402B60085DF002311F400270FC0042FC1DF002311F4002790
:1402CA0009C00C81BBDF002311F4002703C084E986BF01E08B
:1402DE000E947A0408950E948C04422FB80142DF002311F4AA
:1402F200002721C08B0164DF002311F400271BC0042FA0DF45
:14030600002311F4002715C03EDF002311F4002710C00C81F6
:14031A006DDF002311F400270AC00E811F819CDF002311F498
:14032E00002703C084E986BF01E00E947A0408950E94880453
:14034200422F6801AA84BB846C8512DF002311F4002733C03C
:14035600860134DF002311F400272DC0042F70DF002311F413
:14036A00002727C00EDF002311F4002722C008853DDF002387
:14037E0011F400271CC044270AC0042F11270A0D1B1D78DF1D
:14039200002311F4002711C04395862F8150481790F3042FC4
:1403A60011270A0D1B1D5ADF002311F4002703C084E986BFBF
:1403BA0001E00E94800408950E948E0407C0442701C043958C
:1403CE004634E8F3015010402224332420163106A4F30E94E2
:1403E200910408950E948E040BC04427552702C04F5F5F4FD1
:1403F600423AEDEC5E07D0F3015010402224332420163106CB
:14040A0084F30E949104089587B3806B87BB80E58DB981E020
:14041E008EB9789408950FB9779BFECF08950E948C04422FF3
:14043200602F08EFF6DF062FF4DF042FF2DF0E947A04089592
:140446000E948C04422F602F0AEFE9DF062FE7DF042FE5DFBD
:14045A000E947A0408950E948C04622F402F55274130E0E0F2
:14046E005E0769F04230E0E05E0761F04330E0E05E0759F0F3
:140482004430E0E05E0751F00BC0462F415808C0462F4157DE
:1404960005C0462F495702C0462F4956242F2F702F7022955A
:1404AA00042F007FBEDF0E947A0408950E948C04622F402F00
:1404BE00262F042FCEDF04E110E07CDF2C812F702F70229523
:1404D2000C81007FB7DF0E947A0408950E948C04622F402F85
:1404E600219709840882FE010581168127813085DEDD262FAA
:1404FA00042FB1DF08E210E05FDF498541501EC08DE790E0F2
:14050E00E42FFF27E7FDF095E80FF91F80819927C096282FBA
:140522002F703070220F331F220F331F220F331F220F331F7A
:14053600082F007F107084DF08E210E03FDF4A95403004F7D6
:14054A0021960E947A0408950E948604E22EA02E21974FE335
:14055E0052E46FE070E0FE0123843484458456844215530504
:140572006405750518F487E0C82E57C04FE956E861E070E00B
:14058600FE012384348445845684421553056405750518F4C2
:14059A0086E0C82E46C04FE057E260E070E0FE012384348495
:1405AE0045845684421553056405750518F485E0C82E35C0A8
:1405C20047EE53E060E070E0FE0123843484458456844215D5
:1405D60053056405750518F484E0C82E24C043E650E060E0F3
:1405EA0070E0FE01238434844584568442155305640575051A
:1405FE0018F483E0C82E13C049E050E060E070E0FE01238422
:14061200348445845684421553056405750518F482E0C82E83
:1406260002C0CC24C394C882FE0103851485258536853DDDCE
:14063A002E2D0A2D10DF08E210E0BEDE0F84C01478F4802D35
:14064E008C198150A82E07C0222700E2F5DE08E210E0B0DE1F
:14066200AA948A2D8030B4F78C2D8150A82E1EC08DE790E012
:14067600EA2DFF27E7FDF095E80FF91F80819927C096282F4D
:14068A002F703070220F331F220F331F220F331F220F331F11
:14069E00082F007F1070D0DE08E210E08BDEAA948A2D80307C
:1406B200FCF621960E94830408950E948A04A22E602F4E8167
:1406C6005F812A2D062FC9DE04E110E077DE0FC0FA01208079
:1406DA003324222D2F702F702295022D007FAEDE4F5F5F4FDB
:1406EE0004E110E067DEFA012080222069F70E947D040895E1
:140702000E948804C22EA02E688579854A852C2D0A2DA5DE2A
:1407160004E110E053DE0FC0FB0120803324222D2F702F707A
:14072A002295022D007F8ADE6F5F7F4F042F112755DEFB01B8
:14073E002080222069F70E948004089520E100276EDE08EC3A
:1407520010E036DE08955CDE01E010E043DE20E300E363DE9F
:1407660020EC002760DE20E100275DDE20E600275ADE01E065
:14077A0010E034DE089522977894E9DF8DE690E09983888335
:14078E0021E001E094DF80E690E09983888321E003E08DDFB5
:1407A200FFCF229608953A932A931A930A930895E89401C072
:1407B60068942FD0CC2408C0E89401C0689429D037FD53D0F3
:1407CA00B7FD5AD0772488249924AA24BB2441D0C1F044D0B6
:1407DE00B1F0E8E2000F111F221F331F771C881C991CAA1C18
:1407F200BB1C88169906AA06BB0628F0881A990AAA0ABB0A98
:140806000395EA9559F726F4082D192D2A2D3B2D13C07A9244
:14081A008A929A92AA92BA92CA92EA938A939A93AA93BA934D
:14082E008B859C85AD85BE85C32E0EF0CB260895C7FC17D0E9
:14084200B991A99199918991E991C990B990A9909990899043
:14085600799024960895E02FE12BE22BE32B0895E82FE92B30
:14086A00EA2BEB2B089500951095209530950F5F1F4F2F4FA4
:14087E003F4F089580959095A095B0958F5F9F4FAF4FBF4F9F
:1408920008950E94A5047F920E94BE0439F177240E94C404C6
:1408A60019F48C019D0120C0089FB02CA12C289F902C812CA6
:1408BA00189FA00C911C871C099FA00C911C871C199F900C7F
:1408CE00811C0A9F900C811C389F800C299F800C1A9F800C9B
:1408E2000B9F800C0B2D1A2D292D382D7F900C94B304E2E06A
:1408F6000C949204E4E00C949204E8E00C949204EE270C940B
:14090A009204FA92EA92DA92CA92BA92AA927A936A935A93F4
:14091E004A930895E1E049915991E0FD089569917991E1FD6A
:140932000895A990B990E2FD0895C990D990E3FD0895E9905E
:14094600F99008958A929A92AA92BA92EA938A939A93AA93A3
:14095A00BA9389859A85AB85BC850895B991A9919991899139
:14096E00E991B990A9909990899024960895EE27E02BE12BB4
:12098200E22BE32B0895EE27E82BE92BEA2BEB2B0895A7
:00000001FF
