:020000040800F2
:1000000048040020450100084F03000809030008C8
:100010004D03000899010008D50800080000000001
:10002000000000000000000000000000D5070008EC
:10003000B50100080000000097040008D707000879
:10004000D70800089504000839080008970600083A
:10005000D301000801060008C5010008C901000815
:10006000CB010008CD010008CF0100089F01000866
:10007000A1010008A3010008A5010008A7010008CC
:10008000A9010008AB01000895010008D10800088B
:10009000D30800089B0100089D010008D101000859
:1000A0003B080008410800083F0800083D08000818
:1000B0004308000845080008470800080D03000829
:1000C0000B030008110300080F0300089B0600083B
:1000D0009D060008C9080008CB080008CD080008E4
:1000E000C701000895060008CF0800084F0800085F
:1000F0005508000853080008510800089701000837
:100100000502000899060008490800089F06000833
:10011000C5080008C70800084B0800084D0800087B
:10012000AD010008AF010008B1010008B3010008EB
:10013000DFF80CD000F01CF8004800472509000843
:1001400048040020004800473101000840EA01034C
:100150009B070AD102E008C9121F08C0042AFAD27C
:1001600003E011F8013B00F8013B521EF9D2704741
:10017000064C074D06E0E06840F0010394E80700F4
:1001800098471034AC42F6D3FFF7D6FF1C0A00089C
:100190003C0A000870477047FEE770477047704799
:1001A0007047704770477047704770477047704797
:1001B00070477047704702E00221491EFDD2401E81
:1001C000FAD2704770477047704770477047704762
:1001D0007047704704490A6822F010020A600A68F2
:1001E00002430A60704700000020024004490A6888
:1001F00002F038020A600A6802430A607047000091
:10020000002002407047000038B54FF40060ADF8A0
:10021000000003248DF8024010208DF80300694689
:100220000D4800F01DF84FF48060ADF80000042088
:100230000A4D8DF803006946284600F011F868154C
:10024000ADF800008DF8024018208DF803006946D3
:10025000284600F005F838BD0010014000080140B4
:10026000F0B5CB780022DC0603F00F0301D58C78C3
:1002700023430C880F2714F0FF0F4FF0010C1CD004
:10028000D0F800500E880CFA02F42640A64210D195
:10029000960007FA06FE25EA0E0E03FA06F5CE785A
:1002A00045EA0E05282E00D14461CE78482E00D1B3
:1002B0000461521C082AE5D305600A88FF2A1ED96A
:1002C0004568002202F108060CFA06F40E88264062
:1002D000A64210D1960007FA06FE25EA0E0E03FA92
:1002E00006F5CE7845EA0E05282E00D14461CE7879
:1002F000482E00D10461521C082AE3D34560F0BDAA
:100300004161704701617047FEE770477047704771
:10031000704700000B4A90685168401AB0F5FA7FA8
:100320000ED390685060137807484FF400611BB9F2
:1003300001231370FFF7E6BF00231370FFF7E0BF40
:10034000704700000000002000100140FEE77047E9
:1003500010B50E490A680E484368D21A642A14D3AD
:1003600009684160017821B901210170142209A1B5
:1003700003E00021017014220CA11248FFF7E6FEF1
:10038000BDE810400F4800F033BB10BD080000204E
:100390000C00002031323334353637383930616261
:1003A000636465666768696A00000000616263648F
:1003B00065666768696A31323334353637383930C3
:1003C000000000002800002008B500214FF0006068
:1003D00000F056F84FF4E06000F048F825208DF862
:1003E000000000208DF8020001208DF8030068460F
:1003F00000F001F808BDF0B50F23C27801784FF086
:10040000E024012742B3D4F80C2D467802F4E062D0
:10041000C2F5E062120AC2F10405D3408278AE4010
:100420001A40324315018A07D20E954021F003018C
:100430000B19D3F80064FF2191408E430D402E43E9
:10044000C3F800640078410900F01F0004EB81014B
:100450008740C1F80071F0BD01F01F0087404809D6
:1004600004EB8000C0F88071F0BD00000249084331
:1004700002490860704700000000FA050CED00E03A
:10048000024A1140014302480160704780FFFF1F8C
:1004900008ED00E070477047044A0029D16901D097
:1004A000014300E08143D161704700000010024029
:1004B000044A0029916901D0014300E08143916120
:1004C000704700000010024010B500F037F84FF4FC
:1004D0008034204600F07AF800F0C2F8012823D1D9
:1004E0001020FFF777FE0220FFF780FE002000F0CB
:1004F00063F8002000F090F8A01100F083F84FF4AA
:10050000E011204600F098F8012000F08FF8392023
:1005100000F032F80028FAD0022000F097F800BF6F
:1005200000F042F80828FBD101213C20FFF7C0FF72
:100530000121BDE810408803FFF7BABF0B480168EE
:1005400041F0010101604168094A114041600168C0
:10055000084A11400160016821F48021016042686D
:10056000002122F4FE0242608160704700100240C8
:100570000000FFF8FFFFF6FE034600205909094A74
:10058000012901D1116804E0022901D1116A00E0BA
:10059000516A03F01F02012393400B4200D0012057
:1005A00070470000001002400248406800F00C0054
:1005B0007047000000100240034A516821F0F0012A
:1005C0000143516070470000001002400B490A6867
:1005D00022F480320A600A68B0F5803F22F480225B
:1005E0000A6007D0B0F5802F03D1086840F4A0203E
:1005F00008607047086840F48030F9E70010024056
:1006000070470000034A516821F4E06101435160E2
:100610007047000000100240034A516821F4605105
:1006200041EAC0005060704700100240014908666E
:100630007047000000004242034B5A68084322F40E
:100640007C1210435860704700100240034A516802
:1006500021F0030101435160704700000010024087
:1006600030B50B4C40F2FF153120FFF785FF2070AD
:100670006068401C6060207810B96068A842F3D1BF
:100680003120FFF779FF002800D0012030BD0000A5
:1006900020000020704770477047704770477047D0
:1006A0000029018802D041F0400101E021F0400121
:1006B000018070470246128900200A4200D00120C2
:1006C0007047808970478181704770B502880B88B8
:1006D0004E888C88CD8833432C430E8923434C8924
:1006E00033438D892343CC892B4302F44152234366
:1006F00013430380828B22F400628283098A018281
:1007000070BD00002DE9F0410E46DFF83080002179
:100710001746C8F8AC1100F013F80546002404E0B1
:10072000002000F00DF83055641CBC42F8D30121C4
:10073000C8F8AC11E8B2BDE8F081000000802142A9
:1007400070B50B4C054602212046FFF7B3FF002889
:10075000F9D029462046FFF7B6FF01212046FFF7D2
:10076000A9FF0028F9D02046FFF7ABFFC0B270BD4B
:100770000038004070B50D46064C00212160FFF79F
:10078000DFFF06462846FFF7DBFF012020603046EA
:1007900070BD0000AC8121422DE9F0410D46DFF82B
:1007A000308000211746C8F8AC11FFF7C9FF064694
:1007B000002404E02878FFF7C3FF6D1C641CBC42D2
:1007C000F8D30121C8F8AC11F0B2BDE8F081000007
:1007D00000802142704700F06DB84FF0E021012801
:1007E00003D1086940F0010004E0801C04D10869CD
:1007F00020F00100086170470020886170474FF0C9
:10080000E0210028086902D040F0020001E020F059
:1008100002000861704710B542F2283000F008F875
:100820000120FFF7ECFFBDE810400120FFF7D5BF26
:100830004FF0E0214861704770477047704770473C
:1008400070477047704770477047704770477047F0
:10085000704770477047000010B5144C00202060AE
:10086000052213493020FFF797FF11490522491D42
:100870002A20FFF791FF00212120FFF77BFF0121B4
:100880002220FFF777FF1A212420FFF773FF28218A
:100890002520FFF76FFF0F212620FFF76BFF0221B6
:1008A0002020FFF767FF0120206010BDA8812142B2
:1008B0001400002002490868401C086070470000CE
:1008C00008000020704770477047704770477047B6
:1008D00070477047FEE7704702E008C8121F08C162
:1008E000002AFAD170477047002001E001C1121FB1
:1008F000002AFBD1704700001CB5002168460A465B
:1009000006C06420FFF757FC054800210160012163
:100910004160052269461020FFF7F4FE1CBD00006F
:10092000A881214210B5FFF7CFFDFFF76DFCFFF75F
:100930004BFDFFF770FF00F00BF8FFF7DDFFFFF74F
:100940008BFF00BFFFF7E6FCFFF702FDFAE70000B0
:1009500030B5012187B08803FFF79EFD4FF460405A
:10096000ADF8040003248DF8064018201E4D8DF8C4
:10097000070001A92846FFF773FC40F60340ADF8D5
:1009800004008DF8064010208DF8070001A92846C4
:10099000FFF766FC1448012110300160022101605C
:1009A0000020ADF808004FF48271ADF80A10ADF8E0
:1009B00010006915ADF812100821ADF81410ADF84B
:1009C0000C00ADF80E00ADF816000720074CADF88E
:1009D000180002A92046FFF778FE01212046FFF704
:1009E0005FFE07B030BD0000000C01400038004041
:1009F00070B50546074C00202060052206492A20D4
:100A0000FFF7CAFE14222946A020FFF7C5FE0120E9
:100A1000206070BDA8812142140000203C0A00081B
:100A20000000002028000000D8080008640A000820
:100A30002800002020040000E80800080000000052
:100A400000000000000000000000000000000000A6
:100A5000E7E7E7E7E7E7E7E7E7E700000000000090
:040A60000000000092
:0400000508000131BD
:00000001FF
