:020000040800F2
:10200000480400204521000843230008FD22000861
:102010004123000899210008092900080000000058
:10202000000000000000000000000000F927000888
:10203000B5210008000000008F240008FB270008DD
:102040000B2900088D2400085D2800088F26000851
:10205000C5210008F9250008B7210008BB210008A8
:10206000BD210008BF210008C12100089F210008F0
:10207000A1210008A3210008A5210008A72100082C
:10208000A9210008AB2100089521000805290008B6
:10209000072900089B2100089D210008C321000892
:1020A0005F280008652800086328000861280008E8
:1020B00067280008692800086B2800080123000829
:1020C000FF220008052300080323000893260008C8
:1020D00095260008FD280008FF28000801290008AF
:1020E000B92100088D26000803290008732800087C
:1020F000792800087728000875280008972100082B
:10210000F9210008912600086D280008972600088C
:10211000F9280008FB2800086F280008712800082B
:10212000AD210008AF210008B1210008B32100084B
:10213000DFF80CD000F01CF8004800478D2900089B
:1021400048040020004800473121000840EA01030C
:102150009B070AD102E008C9121F08C0042AFAD25C
:1021600003E011F8013B00F8013B521EF9D2704721
:10217000064C074D06E0E06840F0010394E80700D4
:1021800098471034AC42F6D3FFF7D6FF902A0008E8
:10219000B02A000870477047FEE7704770477047E5
:1021A0007047704770477047704770477047704777
:1021B0007047704770477047704770477047704767
:1021C000704770477047000004490A6822F0100207
:1021D0000A600A6802430A6070470000002002405B
:1021E00004490A6802F038020A600A6802430A6079
:1021F00070470000002002407047000038B54FF4DF
:102200000060ADF8000003248DF8024010208DF826
:10221000030069460D4800F01DF84FF48060ADF8EA
:10222000000004200A4D8DF803006946284600F09E
:1022300011F86815ADF800008DF8024018208DF8EF
:1022400003006946284600F005F838BD001001403B
:1022500000080140F0B5CB780022DC0603F00F0344
:1022600001D58C7823430C880F2714F0FF0F4FF013
:10227000010C1CD0D0F800500E880CFA02F4264055
:10228000A64210D1960007FA06FE25EA0E0E03FAC2
:1022900006F5CE7845EA0E05282E00D14461CE78A9
:1022A000482E00D10461521C082AE5D305600A8833
:1022B000FF2A1ED94568002202F108060CFA06F42E
:1022C0000E882640A64210D1960007FA06FE25EA9F
:1022D0000E0E03FA06F5CE7845EA0E05282E00D13B
:1022E0004461CE78482E00D10461521C082AE3D301
:1022F0004560F0BD4161704701617047FEE770477E
:1023000070477047704700000B4A90685168401A48
:10231000B0F5FA7F0ED390685060137807484FF4F9
:1023200000611BB901231370FFF7E6BF0023137090
:10233000FFF7E0BF704700000000002000100140E0
:10234000FEE7704710B50F490A680F484368D21A74
:10235000B2F5FA7F14D309684160017821B90121EF
:102360000170142209A103E00021017014220DA1C3
:102370001248FFF7EBFEBDE81040104800F06ABBC2
:1023800010BD0000080000200C0000203132333462
:102390003536373839306162636465666768696A03
:1023A000000000006162636465666768696A3132D3
:1023B000333435363738393000000000280000202B
:1023C00008B54FF40051880300F056F84FF4E06070
:1023D00000F048F825208DF8000000208DF802005C
:1023E00001208DF80300684600F001F808BDF0B543
:1023F0000F23C27801784FF0E024012742B3D4F8CC
:102400000C2D467802F4E062C2F5E062120AC2F1D5
:102410000405D3408278AE401A40324315018A0742
:10242000D20E954021F003010B19D3F80064FF216F
:1024300091408E430D402E43C3F80064007841095B
:1024400000F01F0004EB81018740C1F80071F0BD6E
:1024500001F01F008740480904EB8000C0F880713C
:10246000F0BD0000024908430249086070470000BF
:102470000000FA050CED00E0024A11400143024859
:102480000160704780FFFF1F08ED00E07047704754
:10249000044A0029D16901D0014300E08143D161A0
:1024A0007047000000100240044A0029916901D0E1
:1024B000014300E081439161704700000010024039
:1024C00010B500F037F84FF48034204600F07AF869
:1024D00000F0C2F8012823D11020FFF775FE02207A
:1024E000FFF77EFE002000F063F8002000F090F877
:1024F000A01100F083F84FF4E011204600F098F8A6
:10250000012000F08FF8392000F032F80028FAD0CE
:10251000022000F097F800BF00F042F80828FBD135
:1025200001213C20FFF7C0FF0121BDE810408803D6
:10253000FFF7BABF0B48016841F001010160416833
:10254000094A114041600168084A11400160016870
:1025500021F4802101604268002122F4FE024260E1
:1025600081607047001002400000FFF8FFFFF6FE98
:10257000034600205909094A012901D1116804E0E4
:10258000022901D1116A00E0516A03F01F02012300
:1025900093400B4200D00120704700000010024021
:1025A0000248406800F00C00704700000010024034
:1025B000034A516821F0F001014351607047000067
:1025C000001002400B490A6822F480320A600A684F
:1025D000B0F5803F22F480220A6007D0B0F5802F4A
:1025E00003D1086840F4A02008607047086840F4F0
:1025F0008030F9E70010024070470000034A51683C
:1026000021F4E06101435160704700000010024076
:10261000034A516821F4605141EAC000506070479C
:102620000010024001490866704700000000424265
:10263000034B5A68084322F47C12104358607047D9
:1026400000100240034A516821F003010143516028
:10265000704700000010024030B50B4C40F2FF15EF
:102660003120FFF785FF20706068401C6060207893
:1026700010B96068A842F3D13120FFF779FF002834
:1026800000D0012030BD00002000002070477047BE
:1026900070477047704770470029018802D041F0A9
:1026A000400101E021F0400101807047024612899B
:1026B00000200A4200D00120704780897047818144
:1026C000704770B502880B884E888C88CD8833435C
:1026D0002C430E8923434C8933438D892343CC8972
:1026E0002B4302F44152234313430380828B22F491
:1026F00000628283098A018270BD00002DE9F047E3
:10270000DFF83C9004460E464FF4006817464146F9
:102710004846FFF7EFFD204600F014F80546002478
:1027200004E0002000F00EF83055641CBC42F8D3E1
:1027300041464846FFF7E0FDE8B2BDE8F0870000FB
:10274000000C014070B50B4C054602212046FFF7F6
:10275000ADFF0028F9D029462046FFF7B0FF012140
:102760002046FFF7A3FF0028F9D02046FFF7A5FF7A
:10277000C0B270BD003800402DE9F0410B4D074656
:102780000E464FF4006421462846FFF7B3FD384655
:10279000FFF7D8FF07463046FFF7D4FF214628460B
:1027A000FFF7AAFD3846BDE8F0810000000C0140AB
:1027B0002DE9F047DFF83C9004460D464FF40068E1
:1027C000174641464846FFF795FD2046FFF7BAFFFA
:1027D0000646002404E02878FFF7B4FF6D1C641C53
:1027E000BC42F8D341464846FFF786FDF0B2BDE84B
:1027F000F0870000000C0140704700F075B84FF002
:10280000E021012803D1086940F0010004E0801CA8
:1028100004D1086920F00100086170470020886138
:1028200070474FF0E0210028086902D040F0020014
:1028300001E020F002000861704710B542F2283034
:1028400000F008F80120FFF7ECFFBDE81040012080
:10285000FFF7D5BF4FF0E0214861704770477047E0
:1028600070477047704770477047704770477047B0
:1028700070477047704770477047000070B5184D3B
:102880004FF4806421462846FFF734FD05221549A0
:102890003020FFF78DFF13490522491D2A20FFF73D
:1028A00087FF00212120FFF767FF01212220FFF78A
:1028B00063FF1A212420FFF75FFF28212520FFF75F
:1028C0005BFF0F212620FFF757FF02212020FFF793
:1028D00053FF21462846BDE87040FFF70DBD0000BC
:1028E000000C01401400002002490868401C0860E8
:1028F000704700000800002070477047704770471D
:102900007047704770477047FEE7704702E008C89D
:10291000121F08C1002AFAD170477047002001E059
:1029200001C1121F002AFBD1704700EB400080005C
:102930000100A0F1010080B2FAD170471CB500215E
:1029400068460A4606C06420FFF7EFFF0D4C4FF4BF
:1029500080612046FFF7CEFCE1142046FFF7CCFC57
:10296000052269461020FFF7C9FE052206493020DE
:10297000FFF71EFF04490522491D2A20FFF718FF13
:102980001CBD0000000C01401400002010B5FFF732
:1029900097FDFFF733FC00F00FF8FFF7CFFFFFF7CD
:1029A0006DFFFFF70DFDFFF748FF00BFFFF7ACFC21
:1029B000FFF7C8FCFAE7000030B5012187B08803B3
:1029C000FFF766FD4FF46040ADF8040003248DF876
:1029D000064018201D4D8DF8070001A92846FFF775
:1029E00039FC40F60340ADF804008DF80640102095
:1029F0008DF8070001A92846FFF72CFC1348012198
:102A000010300160022101600020ADF80800ADF82F
:102A100010004FF48271ADF80C00ADF81400ADF861
:102A20000A10ADF80E00ADF8160069150720084C25
:102A3000ADF81210ADF8180002A92046FFF741FECC
:102A400001212046FFF728FE07B030BD000C0140F1
:102A50000038004070B50C4D06464FF480642146A6
:102A60002846FFF747FC052208492A20FFF7A0FE69
:102A700014223146A020FFF79BFE21462846BDE8E0
:102A80007040FFF739BC0000000C0140140000202A
:102A9000B02A000800000020280000000C290008CF
:102AA000D82A000828000020200400001C29000863
:102AB0000000000000000000000000000000000016
:102AC00000000000E7E7E7E7E7E7E7E7E7E7000000
:082AD0000000000000000000FE
:04000005080021319D
:00000001FF
